{
  "contractName": "Evote",
  "abi": [
    {
      "inputs": [],
      "stateMutability": "nonpayable",
      "type": "constructor"
    },
    {
      "inputs": [
        {
          "internalType": "string",
          "name": "_position",
          "type": "string"
        },
        {
          "internalType": "uint256",
          "name": "_startDate",
          "type": "uint256"
        },
        {
          "internalType": "uint256",
          "name": "_endDate",
          "type": "uint256"
        }
      ],
      "name": "createElection",
      "outputs": [
        {
          "components": [
            {
              "internalType": "string",
              "name": "position",
              "type": "string"
            },
            {
              "internalType": "uint256",
              "name": "startDate",
              "type": "uint256"
            },
            {
              "internalType": "uint256",
              "name": "endDate",
              "type": "uint256"
            },
            {
              "internalType": "bytes32",
              "name": "electionID",
              "type": "bytes32"
            }
          ],
          "internalType": "struct Evote.Election",
          "name": "",
          "type": "tuple"
        }
      ],
      "stateMutability": "nonpayable",
      "type": "function"
    },
    {
      "inputs": [
        {
          "internalType": "bytes32",
          "name": "electionId",
          "type": "bytes32"
        },
        {
          "internalType": "string",
          "name": "name",
          "type": "string"
        },
        {
          "internalType": "string",
          "name": "manifesto",
          "type": "string"
        }
      ],
      "name": "createCandidate",
      "outputs": [
        {
          "components": [
            {
              "internalType": "string",
              "name": "name",
              "type": "string"
            },
            {
              "internalType": "string",
              "name": "manifesto",
              "type": "string"
            },
            {
              "internalType": "uint32",
              "name": "voteCount",
              "type": "uint32"
            },
            {
              "internalType": "bytes32",
              "name": "candidateID",
              "type": "bytes32"
            },
            {
              "internalType": "bytes32",
              "name": "electionID",
              "type": "bytes32"
            }
          ],
          "internalType": "struct Evote.Candidate",
          "name": "",
          "type": "tuple"
        }
      ],
      "stateMutability": "nonpayable",
      "type": "function"
    },
    {
      "inputs": [],
      "name": "getElections",
      "outputs": [
        {
          "components": [
            {
              "internalType": "string",
              "name": "position",
              "type": "string"
            },
            {
              "internalType": "uint256",
              "name": "startDate",
              "type": "uint256"
            },
            {
              "internalType": "uint256",
              "name": "endDate",
              "type": "uint256"
            },
            {
              "internalType": "bytes32",
              "name": "electionID",
              "type": "bytes32"
            }
          ],
          "internalType": "struct Evote.Election[]",
          "name": "",
          "type": "tuple[]"
        }
      ],
      "stateMutability": "view",
      "type": "function"
    },
    {
      "inputs": [
        {
          "internalType": "bytes32",
          "name": "_electionID",
          "type": "bytes32"
        },
        {
          "internalType": "bytes32",
          "name": "_candidateID",
          "type": "bytes32"
        }
      ],
      "name": "vote",
      "outputs": [
        {
          "components": [
            {
              "internalType": "address",
              "name": "voter",
              "type": "address"
            },
            {
              "internalType": "bytes32",
              "name": "vote_forID",
              "type": "bytes32"
            },
            {
              "internalType": "bytes32",
              "name": "electionID",
              "type": "bytes32"
            }
          ],
          "internalType": "struct Evote.Voter",
          "name": "",
          "type": "tuple"
        }
      ],
      "stateMutability": "nonpayable",
      "type": "function"
    },
    {
      "inputs": [
        {
          "internalType": "bytes32",
          "name": "_electionID",
          "type": "bytes32"
        }
      ],
      "name": "getCandidates",
      "outputs": [
        {
          "components": [
            {
              "internalType": "string",
              "name": "name",
              "type": "string"
            },
            {
              "internalType": "string",
              "name": "manifesto",
              "type": "string"
            },
            {
              "internalType": "uint32",
              "name": "voteCount",
              "type": "uint32"
            },
            {
              "internalType": "bytes32",
              "name": "candidateID",
              "type": "bytes32"
            },
            {
              "internalType": "bytes32",
              "name": "electionID",
              "type": "bytes32"
            }
          ],
          "internalType": "struct Evote.Candidate[]",
          "name": "",
          "type": "tuple[]"
        }
      ],
      "stateMutability": "view",
      "type": "function"
    },
    {
      "inputs": [
        {
          "internalType": "address",
          "name": "_newAdmin",
          "type": "address"
        }
      ],
      "name": "changeAdmin",
      "outputs": [],
      "stateMutability": "nonpayable",
      "type": "function"
    }
  ],
  "bytecode": "0x60806040523480156200001157600080fd5b50336000806101000a81548173ffffffffffffffffffffffffffffffffffffffff021916908373ffffffffffffffffffffffffffffffffffffffff160217905550620000626200009860201b60201c565b620000726200021760201b60201c565b620000826200051360201b60201c565b620000926200080c60201b60201c565b6200112e565b620000a262000d5d565b6040518060400160405280600981526020017f507265736964656e7400000000000000000000000000000000000000000000008152508160000181905250600081602001818152505060038160400181815250506200010062000d5d565b6040518060400160405280600681526020017f73656e61746500000000000000000000000000000000000000000000000000008152508160000181905250600081602001818152505060068160400181815250506200015e62000d5d565b6040518060400160405280600881526020017f476f7665726e6f72000000000000000000000000000000000000000000000000815250816000018190525060028160200181815250506005816040018181525050620001d183600001518460200151856040015162000aec60201b60201c565b50620001f182600001518360200151846040015162000aec60201b60201c565b506200021181600001518260200151836040015162000aec60201b60201c565b50505050565b6200022162000d88565b60016000815481106200025d577f4e487b7100000000000000000000000000000000000000000000000000000000600052603260045260246000fd5b9060005260206000209060040201600301548160800181815250506040518060400160405280600981526020017f5065746572204f6269000000000000000000000000000000000000000000000081525081600001819052506040518060400160405280601e81526020017f46726f6d20436f6e73756d7074696f6e20746f2050726f64756374696f6e00008152508160200181905250620002fe62000d88565b60016000815481106200033a577f4e487b7100000000000000000000000000000000000000000000000000000000600052603260045260246000fd5b9060005260206000209060040201600301548160800181815250506040518060400160405280600b81526020017f54696e75627520426f6c6100000000000000000000000000000000000000000081525081600001819052506040518060400160405280600881526020017f456d696c6f6b616e0000000000000000000000000000000000000000000000008152508160200181905250620003db62000d88565b600160008154811062000417577f4e487b7100000000000000000000000000000000000000000000000000000000600052603260045260246000fd5b9060005260206000209060040201600301548160800181815250506040518060400160405280600e81526020017f4174696b752041627562616b617200000000000000000000000000000000000081525081600001819052506040518060400160405280601a81526020017f506f7765722062656c6f6e677320746f20746865204e6f7274680000000000008152508160200181905250620004cd83608001518460000151856020015162000c1b60201b60201c565b50620004ed83608001518360000151846020015162000c1b60201b60201c565b506200050d83608001518260000151836020015162000c1b60201b60201c565b50505050565b6200051d62000d88565b6001808154811062000558577f4e487b7100000000000000000000000000000000000000000000000000000000600052603260045260246000fd5b9060005260206000209060040201600301548160800181815250506040518060400160405280600f81526020017f496b6520456b776572656d616e6475000000000000000000000000000000000081525081600001819052506040518060400160405280600e81526020017f4f6275206e6b6520616e796921210000000000000000000000000000000000008152508160200181905250620005f962000d88565b6001808154811062000634577f4e487b7100000000000000000000000000000000000000000000000000000000600052603260045260246000fd5b9060005260206000209060040201600301548160800181815250506040518060400160405280600d81526020017f4469616e612057696c6c736f6e0000000000000000000000000000000000000081525081600001819052506040518060400160405280601081526020017f5468652067616d65206368616e676572000000000000000000000000000000008152508160200181905250620006d562000d88565b6001808154811062000710577f4e487b7100000000000000000000000000000000000000000000000000000000600052603260045260246000fd5b9060005260206000209060040201600301548160800181815250506040518060400160405280600b81526020017f4c6177616c20416264756c00000000000000000000000000000000000000000081525081600001819052506040518060400160405280600881526020017f457175616c6974790000000000000000000000000000000000000000000000008152508160200181905250620007c683608001518460000151856020015162000c1b60201b60201c565b50620007e683608001518360000151846020015162000c1b60201b60201c565b506200080683608001518260000151836020015162000c1b60201b60201c565b50505050565b6200081662000d88565b600160028154811062000852577f4e487b7100000000000000000000000000000000000000000000000000000000600052603260045260246000fd5b9060005260206000209060040201600301548160800181815250506040518060400160405280600b81526020017f53756e646179204d626168000000000000000000000000000000000000000000815250816000018190525060405180606001604052806024815260200162002a46602491398160200181905250620008d762000d88565b600160028154811062000913577f4e487b7100000000000000000000000000000000000000000000000000000000600052603260045260246000fd5b9060005260206000209060040201600301548160800181815250506040518060400160405280600f81526020017f4368696a696f6b65204564656f6761000000000000000000000000000000000081525081600001819052506040518060400160405280600681526020017f456c7570706500000000000000000000000000000000000000000000000000008152508160200181905250620009b462000d88565b6001600281548110620009f0577f4e487b7100000000000000000000000000000000000000000000000000000000600052603260045260246000fd5b9060005260206000209060040201600301548160800181815250506040518060400160405280600b81526020017f4672616e6b204e77656b6500000000000000000000000000000000000000000081525081600001819052506040518060400160405280601581526020017f456e75677520697320696e206f75722068616e64730000000000000000000000815250816020018190525062000aa683608001518460000151856020015162000c1b60201b60201c565b5062000ac683608001518360000151846020015162000c1b60201b60201c565b5062000ae683608001518260000151836020015162000c1b60201b60201c565b50505050565b62000af662000d5d565b62000b0062000d5d565b6000429050858260000181905250600085141562000b1f578062000b3e565b620151808562000b30919062000fde565b8162000b3d919062000f81565b5b826020018181525050620151808462000b58919062000fde565b8162000b65919062000f81565b82604001818152505085858560405160200162000b859392919062000f21565b604051602081830303815290604052805190602001208260600181815250506001829080600181540180825580915050600190039060005260206000209060040201600090919091909150600082015181600001908051906020019062000bee92919062000dc3565b50602082015181600101556040820151816002015560608201518160030155505081925050509392505050565b62000c2562000d88565b62000c2f62000d88565b848160800181815250508381600001819052508281602001819052506000816040019063ffffffff16908163ffffffff168152505083838660405160200162000c7b9392919062000ed6565b6040516020818303038152906040528051906020012081606001818152505060026000868152602001908152602001600020819080600181540180825580915050600190039060005260206000209060050201600090919091909150600082015181600001908051906020019062000cf592919062000dc3565b50602082015181600101908051906020019062000d1492919062000dc3565b5060408201518160020160006101000a81548163ffffffff021916908363ffffffff16021790555060608201518160030155608082015181600401555050809150509392505050565b6040518060800160405280606081526020016000815260200160008152602001600080191681525090565b6040518060a001604052806060815260200160608152602001600063ffffffff16815260200160008019168152602001600080191681525090565b82805462000dd19062001089565b90600052602060002090601f01602090048101928262000df5576000855562000e41565b82601f1062000e1057805160ff191683800117855562000e41565b8280016001018555821562000e41579182015b8281111562000e4057825182559160200191906001019062000e23565b5b50905062000e50919062000e54565b5090565b5b8082111562000e6f57600081600090555060010162000e55565b5090565b62000e7e816200103f565b82525050565b600062000e918262000f65565b62000e9d818562000f70565b935062000eaf81856020860162001053565b62000eba816200111d565b840191505092915050565b62000ed08162001049565b82525050565b6000606082019050818103600083015262000ef2818662000e84565b9050818103602083015262000f08818562000e84565b905062000f19604083018462000e73565b949350505050565b6000606082019050818103600083015262000f3d818662000e84565b905062000f4e602083018562000ec5565b62000f5d604083018462000ec5565b949350505050565b600081519050919050565b600082825260208201905092915050565b600062000f8e8262001049565b915062000f9b8362001049565b9250827fffffffffffffffffffffffffffffffffffffffffffffffffffffffffffffffff0382111562000fd35762000fd2620010bf565b5b828201905092915050565b600062000feb8262001049565b915062000ff88362001049565b9250817fffffffffffffffffffffffffffffffffffffffffffffffffffffffffffffffff0483118215151615620010345762001033620010bf565b5b828202905092915050565b6000819050919050565b6000819050919050565b60005b838110156200107357808201518184015260208101905062001056565b8381111562001083576000848401525b50505050565b60006002820490506001821680620010a257607f821691505b60208210811415620010b957620010b8620010ee565b5b50919050565b7f4e487b7100000000000000000000000000000000000000000000000000000000600052601160045260246000fd5b7f4e487b7100000000000000000000000000000000000000000000000000000000600052602260045260246000fd5b6000601f19601f8301169050919050565b611908806200113e6000396000f3fe608060405234801561001057600080fd5b50600436106100625760003560e01c806385b923ca146100675780638f283970146100975780639f3a7f52146100b3578063eeaaf19d146100d1578063f1e1d8c414610101578063f49a7a1714610131575b600080fd5b610081600480360381019061007c9190610d56565b610161565b60405161008e91906112ea565b60405180910390f35b6100b160048036038101906100ac9190610d2d565b61038b565b005b6100bb61045c565b6040516100c8919061130c565b60405180910390f35b6100eb60048036038101906100e69190610d7f565b61056b565b6040516100f89190611455565b60405180910390f35b61011b60048036038101906101169190610dbb565b6107e6565b6040516101289190611411565b60405180910390f35b61014b60048036038101906101469190610e3a565b61091e565b6040516101589190611433565b60405180910390f35b60606000600260008481526020019081526020016000208054905014156101bd576040517f08c379a00000000000000000000000000000000000000000000000000000000081526004016101b4906113d1565b60405180910390fd5b60026000838152602001908152602001600020805480602002602001604051908101604052809291908181526020016000905b8282101561038057838290600052602060002090600502016040518060a0016040529081600082018054610223906116ba565b80601f016020809104026020016040519081016040528092919081815260200182805461024f906116ba565b801561029c5780601f106102715761010080835404028352916020019161029c565b820191906000526020600020905b81548152906001019060200180831161027f57829003601f168201915b505050505081526020016001820180546102b5906116ba565b80601f01602080910402602001604051908101604052809291908181526020018280546102e1906116ba565b801561032e5780601f106103035761010080835404028352916020019161032e565b820191906000526020600020905b81548152906001019060200180831161031157829003601f168201915b505050505081526020016002820160009054906101000a900463ffffffff1663ffffffff1663ffffffff16815260200160038201548152602001600482015481525050815260200190600101906101f0565b505050509050919050565b60008054906101000a900473ffffffffffffffffffffffffffffffffffffffff1673ffffffffffffffffffffffffffffffffffffffff163373ffffffffffffffffffffffffffffffffffffffff1614610419576040517f08c379a0000000000000000000000000000000000000000000000000000000008152600401610410906113f1565b60405180910390fd5b806000806101000a81548173ffffffffffffffffffffffffffffffffffffffff021916908373ffffffffffffffffffffffffffffffffffffffff16021790555050565b60606001805480602002602001604051908101604052809291908181526020016000905b8282101561056257838290600052602060002090600402016040518060800160405290816000820180546104b3906116ba565b80601f01602080910402602001604051908101604052809291908181526020018280546104df906116ba565b801561052c5780601f106105015761010080835404028352916020019161052c565b820191906000526020600020905b81548152906001019060200180831161050f57829003601f168201915b50505050508152602001600182015481526020016002820154815260200160038201548152505081526020019060010190610480565b50505050905090565b610573610b40565b61057b610b40565b600060026000868152602001908152602001600020905033826000019073ffffffffffffffffffffffffffffffffffffffff16908173ffffffffffffffffffffffffffffffffffffffff1681525050848260400181815250508382602001818152505060008180549050116105ef57600080fd5b6105f98533610a3b565b15610639576040517f08c379a0000000000000000000000000000000000000000000000000000000008152600401610630906113b1565b60405180910390fd5b60005b81805490508160ff1610156107405784828260ff1681548110610688577f4e487b7100000000000000000000000000000000000000000000000000000000600052603260045260246000fd5b906000526020600020906005020160030154141561072d57818160ff16815481106106dc577f4e487b7100000000000000000000000000000000000000000000000000000000600052603260045260246000fd5b9060005260206000209060050201600201600081819054906101000a900463ffffffff168092919061070d9061171d565b91906101000a81548163ffffffff021916908363ffffffff160217905550505b80806107389061174a565b91505061063c565b506003600086815260200190815260200160002082908060018154018082558091505060019003906000526020600020906003020160009091909190915060008201518160000160006101000a81548173ffffffffffffffffffffffffffffffffffffffff021916908373ffffffffffffffffffffffffffffffffffffffff16021790555060208201518160010155604082015181600201555050819250505092915050565b6107ee610b7d565b6107f6610b7d565b848160800181815250508381600001819052508281602001819052506000816040019063ffffffff16908163ffffffff16815250508383866040516020016108409392919061132e565b604051602081830303815290604052805190602001208160600181815250506002600086815260200190815260200160002081908060018154018082558091505060019003906000526020600020906005020160009091909190915060008201518160000190805190602001906108b8929190610bb8565b5060208201518160010190805190602001906108d5929190610bb8565b5060408201518160020160006101000a81548163ffffffff021916908363ffffffff16021790555060608201518160030155608082015181600401555050809150509392505050565b610926610c3e565b61092e610c3e565b6000429050858260000181905250600085141561094b5780610966565b620151808561095a91906115bb565b816109659190611565565b5b826020018181525050620151808461097e91906115bb565b816109899190611565565b8260400181815250508585856040516020016109a793929190611373565b6040516020818303038152906040528051906020012082606001818152505060018290806001815401808255809150506001900390600052602060002090600402016000909190919091506000820151816000019080519060200190610a0e929190610bb8565b50602082015181600101556040820151816002015560608201518160030155505081925050509392505050565b600080600090505b60036000858152602001908152602001600020805490508160ff161015610b34578273ffffffffffffffffffffffffffffffffffffffff16600360008681526020019081526020016000208260ff1681548110610ac9577f4e487b7100000000000000000000000000000000000000000000000000000000600052603260045260246000fd5b906000526020600020906003020160000160009054906101000a900473ffffffffffffffffffffffffffffffffffffffff1673ffffffffffffffffffffffffffffffffffffffff161415610b21576001915050610b3a565b8080610b2c9061174a565b915050610a43565b50600090505b92915050565b6040518060600160405280600073ffffffffffffffffffffffffffffffffffffffff16815260200160008019168152602001600080191681525090565b6040518060a001604052806060815260200160608152602001600063ffffffff16815260200160008019168152602001600080191681525090565b828054610bc4906116ba565b90600052602060002090601f016020900481019282610be65760008555610c2d565b82601f10610bff57805160ff1916838001178555610c2d565b82800160010185558215610c2d579182015b82811115610c2c578251825591602001919060010190610c11565b5b509050610c3a9190610c69565b5090565b6040518060800160405280606081526020016000815260200160008152602001600080191681525090565b5b80821115610c82576000816000905550600101610c6a565b5090565b6000610c99610c9484611495565b611470565b905082815260208101848484011115610cb157600080fd5b610cbc848285611678565b509392505050565b600081359050610cd38161188d565b92915050565b600081359050610ce8816118a4565b92915050565b600082601f830112610cff57600080fd5b8135610d0f848260208601610c86565b91505092915050565b600081359050610d27816118bb565b92915050565b600060208284031215610d3f57600080fd5b6000610d4d84828501610cc4565b91505092915050565b600060208284031215610d6857600080fd5b6000610d7684828501610cd9565b91505092915050565b60008060408385031215610d9257600080fd5b6000610da085828601610cd9565b9250506020610db185828601610cd9565b9150509250929050565b600080600060608486031215610dd057600080fd5b6000610dde86828701610cd9565b935050602084013567ffffffffffffffff811115610dfb57600080fd5b610e0786828701610cee565b925050604084013567ffffffffffffffff811115610e2457600080fd5b610e3086828701610cee565b9150509250925092565b600080600060608486031215610e4f57600080fd5b600084013567ffffffffffffffff811115610e6957600080fd5b610e7586828701610cee565b9350506020610e8686828701610d18565b9250506040610e9786828701610d18565b9150509250925092565b6000610ead83836110bb565b905092915050565b6000610ec183836111b5565b905092915050565b610ed281611615565b82525050565b6000610ee3826114e6565b610eed8185611521565b935083602082028501610eff856114c6565b8060005b85811015610f3b5784840389528151610f1c8582610ea1565b9450610f2783611507565b925060208a01995050600181019050610f03565b50829750879550505050505092915050565b6000610f58826114f1565b610f628185611532565b935083602082028501610f74856114d6565b8060005b85811015610fb05784840389528151610f918582610eb5565b9450610f9c83611514565b925060208a01995050600181019050610f78565b50829750879550505050505092915050565b610fcb81611627565b82525050565b610fda81611627565b82525050565b6000610feb826114fc565b610ff58185611543565b9350611005818560208601611687565b61100e81611801565b840191505092915050565b6000611024826114fc565b61102e8185611554565b935061103e818560208601611687565b61104781611801565b840191505092915050565b600061105f601f83611554565b915061106a82611812565b602082019050919050565b6000611082601783611554565b915061108d8261183b565b602082019050919050565b60006110a5601383611554565b91506110b082611864565b602082019050919050565b600060a08301600083015184820360008601526110d88282610fe0565b915050602083015184820360208601526110f28282610fe0565b915050604083015161110760408601826112db565b50606083015161111a6060860182610fc2565b50608083015161112d6080860182610fc2565b508091505092915050565b600060a08301600083015184820360008601526111558282610fe0565b9150506020830151848203602086015261116f8282610fe0565b915050604083015161118460408601826112db565b5060608301516111976060860182610fc2565b5060808301516111aa6080860182610fc2565b508091505092915050565b600060808301600083015184820360008601526111d28282610fe0565b91505060208301516111e760208601826112bd565b5060408301516111fa60408601826112bd565b50606083015161120d6060860182610fc2565b508091505092915050565b600060808301600083015184820360008601526112358282610fe0565b915050602083015161124a60208601826112bd565b50604083015161125d60408601826112bd565b5060608301516112706060860182610fc2565b508091505092915050565b6060820160008201516112916000850182610ec9565b5060208201516112a46020850182610fc2565b5060408201516112b76040850182610fc2565b50505050565b6112c681611651565b82525050565b6112d581611651565b82525050565b6112e48161165b565b82525050565b600060208201905081810360008301526113048184610ed8565b905092915050565b600060208201905081810360008301526113268184610f4d565b905092915050565b600060608201905081810360008301526113488186611019565b9050818103602083015261135c8185611019565b905061136b6040830184610fd1565b949350505050565b6000606082019050818103600083015261138d8186611019565b905061139c60208301856112cc565b6113a960408301846112cc565b949350505050565b600060208201905081810360008301526113ca81611052565b9050919050565b600060208201905081810360008301526113ea81611075565b9050919050565b6000602082019050818103600083015261140a81611098565b9050919050565b6000602082019050818103600083015261142b8184611138565b905092915050565b6000602082019050818103600083015261144d8184611218565b905092915050565b600060608201905061146a600083018461127b565b92915050565b600061147a61148b565b905061148682826116ec565b919050565b6000604051905090565b600067ffffffffffffffff8211156114b0576114af6117d2565b5b6114b982611801565b9050602081019050919050565b6000819050602082019050919050565b6000819050602082019050919050565b600081519050919050565b600081519050919050565b600081519050919050565b6000602082019050919050565b6000602082019050919050565b600082825260208201905092915050565b600082825260208201905092915050565b600082825260208201905092915050565b600082825260208201905092915050565b600061157082611651565b915061157b83611651565b9250827fffffffffffffffffffffffffffffffffffffffffffffffffffffffffffffffff038211156115b0576115af611774565b5b828201905092915050565b60006115c682611651565b91506115d183611651565b9250817fffffffffffffffffffffffffffffffffffffffffffffffffffffffffffffffff048311821515161561160a57611609611774565b5b828202905092915050565b600061162082611631565b9050919050565b6000819050919050565b600073ffffffffffffffffffffffffffffffffffffffff82169050919050565b6000819050919050565b600063ffffffff82169050919050565b600060ff82169050919050565b82818337600083830152505050565b60005b838110156116a557808201518184015260208101905061168a565b838111156116b4576000848401525b50505050565b600060028204905060018216806116d257607f821691505b602082108114156116e6576116e56117a3565b5b50919050565b6116f582611801565b810181811067ffffffffffffffff82111715611714576117136117d2565b5b80604052505050565b60006117288261165b565b915063ffffffff82141561173f5761173e611774565b5b600182019050919050565b60006117558261166b565b915060ff82141561176957611768611774565b5b600182019050919050565b7f4e487b7100000000000000000000000000000000000000000000000000000000600052601160045260246000fd5b7f4e487b7100000000000000000000000000000000000000000000000000000000600052602260045260246000fd5b7f4e487b7100000000000000000000000000000000000000000000000000000000600052604160045260246000fd5b6000601f19601f8301169050919050565b7f596f75206861766520616c7265616479206361737420796f757220766f746500600082015250565b7f656c656374696f6e204964206e6f7420636f7272656374000000000000000000600082015250565b7f596f752061726520616e20496e74727564657200000000000000000000000000600082015250565b61189681611615565b81146118a157600080fd5b50565b6118ad81611627565b81146118b857600080fd5b50565b6118c481611651565b81146118cf57600080fd5b5056fea2646970667358221220a8db2889af635af7349dfc03771d98901bd03f75722f30132286dd8beb1c5ecc64736f6c63430008040033456e7567752077696c6c206861766520776174657220696e203132302064617973212121",
  "immutableReferences": {},
  "source": "// SPDX-License-Identifier: MIT\npragma solidity >=0.4.22 <0.9.0;\n\ncontract Evote {\n    address admin;\n\n    struct Candidate {\n        string name;\n        string manifesto;\n        uint32 voteCount;\n        bytes32 candidateID;\n        bytes32 electionID;\n    }\n\n    struct Voter {\n        address voter;\n        bytes32 vote_forID;\n        bytes32 electionID;\n    }\n\n    struct Election {\n        string position;\n        uint startDate;\n        uint endDate;\n        bytes32 electionID;\n    }\n\n    Election[] elections;\n    //electionId => candidate[]\n    mapping(bytes32 => Candidate[]) candidates;\n    //electionId => Voter[]\n    mapping(bytes32 => Voter[]) voters;\n\n    constructor() {\n        admin = msg.sender;\n        _createElectionHandler();\n        _createCandidateHandler();\n        _createCandidateHandler2();\n        _createCandidateHandler3();\n    }\n\n    /**\n     *   createElection\n     */\n    function createElection(\n        string memory _position,\n        uint _startDate,\n        uint _endDate\n    ) public returns (Election memory) {\n        Election memory _election;\n        uint time = block.timestamp;\n\n        _election.position = _position;\n        _election.startDate = _startDate != 0\n            ? time + _startDate * 1 days\n            : time;\n        _election.endDate = time + _endDate * 1 days;\n        _election.electionID = keccak256(\n            abi.encode(_position, _startDate, _endDate)\n        );\n\n        elections.push(_election);\n\n        return (_election);\n    }\n\n    function createCandidate(\n        bytes32 electionId,\n        string memory name,\n        string memory manifesto\n    ) public returns (Candidate memory) {\n        Candidate memory _candidate;\n\n        _candidate.electionID = electionId;\n        _candidate.name = name;\n        _candidate.manifesto = manifesto;\n        _candidate.voteCount = 0;\n        _candidate.candidateID = keccak256(\n            abi.encode(name, manifesto, electionId)\n        );\n\n        candidates[electionId].push(_candidate);\n\n        return (_candidate);\n    }\n\n    function getElections() public view returns (Election[] memory) {\n        return elections;\n    }\n\n    function vote(\n        bytes32 _electionID,\n        bytes32 _candidateID\n    ) public returns (Voter memory) {\n        Voter memory _voter;\n        Candidate[] storage _candidates = candidates[_electionID];\n\n        _voter.voter = msg.sender;\n        _voter.electionID = _electionID;\n        _voter.vote_forID = _candidateID;\n\n        //add vote to candidate\n        if (_candidates.length <= 0) {\n            revert();\n        }\n\n        if (hasVoted(_electionID, msg.sender)) {\n            revert(\"You have already cast your vote\");\n        }\n\n        for (uint8 i = 0; i < _candidates.length; i++) {\n            if (_candidates[i].candidateID == _candidateID) {\n                _candidates[i].voteCount++;\n            }\n        }\n\n        voters[_electionID].push(_voter);\n        return _voter;\n    }\n\n    function hasVoted(\n        bytes32 _electionID,\n        address _voterAddress\n    ) private view returns (bool) {\n        for (uint8 i = 0; i < voters[_electionID].length; i++) {\n            if (voters[_electionID][i].voter == _voterAddress) {\n                return true;\n            }\n        }\n        return false;\n    }\n\n    function getCandidates(\n        bytes32 _electionID\n    ) public view returns (Candidate[] memory) {\n        if (candidates[_electionID].length == 0) {\n            revert(\"election Id not correct\");\n        }\n        return candidates[_electionID];\n    }\n\n    function changeAdmin(address _newAdmin) public {\n        if (msg.sender != admin) {\n            revert(\"You are an Intruder\");\n        }\n        admin = _newAdmin;\n    }\n\n    function _createElectionHandler() private {\n        Election memory election_one;\n\n        election_one.position = \"President\";\n        election_one.startDate = 0;\n        election_one.endDate = 3;\n\n        Election memory election_two;\n\n        election_two.position = \"senate\";\n        election_two.startDate = 0;\n        election_two.endDate = 6;\n\n        Election memory election_three;\n\n        election_three.position = \"Governor\";\n        election_three.startDate = 2;\n        election_three.endDate = 5;\n\n        createElection(\n            election_one.position,\n            election_one.startDate,\n            election_one.endDate\n        );\n        createElection(\n            election_two.position,\n            election_two.startDate,\n            election_two.endDate\n        );\n        createElection(\n            election_three.position,\n            election_three.startDate,\n            election_three.endDate\n        );\n    }\n\n    function _createCandidateHandler() private {\n        Candidate memory candidate_one;\n\n        candidate_one.electionID = elections[0].electionID;\n        candidate_one.name = \"Peter Obi\";\n        candidate_one.manifesto = \"From Consumption to Production\";\n\n        Candidate memory candidate_two;\n\n        candidate_two.electionID = elections[0].electionID;\n        candidate_two.name = \"Tinubu Bola\";\n        candidate_two.manifesto = \"Emilokan\";\n\n        Candidate memory candidate_three;\n\n        candidate_three.electionID = elections[0].electionID;\n        candidate_three.name = \"Atiku Abubakar\";\n        candidate_three.manifesto = \"Power belongs to the North\";\n\n        createCandidate(\n            candidate_one.electionID,\n            candidate_one.name,\n            candidate_one.manifesto\n        );\n        createCandidate(\n            candidate_one.electionID,\n            candidate_two.name,\n            candidate_two.manifesto\n        );\n        createCandidate(\n            candidate_one.electionID,\n            candidate_three.name,\n            candidate_three.manifesto\n        );\n    }\n\n    function _createCandidateHandler2() private {\n        Candidate memory candidate_one;\n\n        candidate_one.electionID = elections[1].electionID;\n        candidate_one.name = \"Ike Ekweremandu\";\n        candidate_one.manifesto = \"Obu nke anyi!!\";\n\n        Candidate memory candidate_two;\n\n        candidate_two.electionID = elections[1].electionID;\n        candidate_two.name = \"Diana Willson\";\n        candidate_two.manifesto = \"The game changer\";\n\n        Candidate memory candidate_three;\n\n        candidate_three.electionID = elections[1].electionID;\n        candidate_three.name = \"Lawal Abdul\";\n        candidate_three.manifesto = \"Equality\";\n\n        createCandidate(\n            candidate_one.electionID,\n            candidate_one.name,\n            candidate_one.manifesto\n        );\n        createCandidate(\n            candidate_one.electionID,\n            candidate_two.name,\n            candidate_two.manifesto\n        );\n        createCandidate(\n            candidate_one.electionID,\n            candidate_three.name,\n            candidate_three.manifesto\n        );\n    }\n\n    function _createCandidateHandler3() private {\n        Candidate memory candidate_one;\n\n        candidate_one.electionID = elections[2].electionID;\n        candidate_one.name = \"Sunday Mbah\";\n        candidate_one.manifesto = \"Enugu will have water in 120 days!!!\";\n\n        Candidate memory candidate_two;\n\n        candidate_two.electionID = elections[2].electionID;\n        candidate_two.name = \"Chijioke Edeoga\";\n        candidate_two.manifesto = \"Eluppe\";\n\n        Candidate memory candidate_three;\n\n        candidate_three.electionID = elections[2].electionID;\n        candidate_three.name = \"Frank Nweke\";\n        candidate_three.manifesto = \"Enugu is in our hands\";\n\n        createCandidate(\n            candidate_one.electionID,\n            candidate_one.name,\n            candidate_one.manifesto\n        );\n        createCandidate(\n            candidate_one.electionID,\n            candidate_two.name,\n            candidate_two.manifesto\n        );\n        createCandidate(\n            candidate_one.electionID,\n            candidate_three.name,\n            candidate_three.manifesto\n        );\n    }\n}\n",
  "sourcePath": "/Users/macs/Desktop/school_projects/secure_voting/client/contracts/evote.sol",
  "compiler": {
    "name": "solc",
    "version": "0.8.4+commit.c7e474f2.Emscripten.clang"
  },
  "schemaVersion": "3.4.13",
  "updatedAt": "2023-08-09T12:14:04.784Z",
  "devdoc": {
    "kind": "dev",
    "methods": {},
    "version": 1
  },
  "userdoc": {
    "kind": "user",
    "methods": {
      "createElection(string,uint256,uint256)": {
        "notice": "createElection"
      }
    },
    "version": 1
  }
}